:100000000C94D5000C94FD000C94FD000C94FD00A4
:100010000C94FD000C94FD000C94FD000C94FD006C
:100020000C94FD000C94FD000C94FD000C94FD005C
:100030000C94FD000C94FD000C94FD000C94FD004C
:100040000C9420050C94FD000C94EE040C94C80450
:100050000C94FD000C94FD000C94FD000C94FD002C
:100060000C94FD000C94FD0000000000240027000B
:100070002A0000000000250028002B0000010001DC
:100080000001000100010001000100010001000168
:100090000001000100010001000100010001000158
:1000A0000001000100010001000100010001000148
:1000B000000100010001000100010001FF00FF003C
:1000C000FF00FF00FF00FF00FF00FF00FF00FF0038
:1000D000FF00FF00FF00FF00FF00FF00FF00FF0028
:1000E000FF00FF00FF00FF00FF00FF00FF00FF0018
:1000F000FF00FF00FF00FF00FF00FF000000000006
:100100002300260029000404040404040404020259
:100110000202020203030303030301020408102086
:100120004080010204081020010204081020000091
:1001300000080002010000030407000000000000A6
:10014000000076657200302E332E3800682D62650F
:10015000617400313000627566662D696E0032355B
:1001600036006465760041726475696E6F20556E65
:100170006F006370750041546D65676133323850AC
:1001800000636F6E0053747265616D006275696C17
:1001900064004175672031392032303136203137E3
:1001A0003A31333A353300006A0511241FBECFEFD0
:1001B000D8E0DEBFCDBF11E0A0E0B1E0EAE9F5E1B3
:1001C00002C005900D92AC34B107D9F722E0ACE43F
:1001D000B1E001C01D92AF30B207E1F710E0C5ED0C
:1001E000D0E004C02197FE010E944A0AC43DD10715
:1001F000C9F70E94B9050C94CB0A0C94000008952D
:100200000895CF92DF92EF92FF920F931F93CF93B7
:10021000DF936C017A018B01C0E0D0E0CE15DF05E1
:1002200089F0D8016D918D01D601ED91FC9101907D
:10023000F081E02DC6010995892B11F47E0102C0E1
:100240002196ECCFC701DF91CF911F910F91FF90C5
:10025000EF90DF90CF900895FC01918D828D9817DB
:1002600061F0828DDF01A80FB11D5D968C91928D9A
:100270009F5F9F73928F90E008958FEF9FEF089597
:10028000FC01918D828D981731F0828DE80FF11D60
:10029000858D90E008958FEF9FEF0895FC01918D7B
:1002A000228D892F90E0805C9F4F821B91098F7374
:1002B0009927089587E591E00E944E0121E0892B5E
:1002C00009F420E0822F0895FC01848DDF01A80F3E
:1002D000B11DA35ABF4F2C91848D90E001968F736E
:1002E0009927848FA689B7892C93A089B1898C918D
:1002F00080648C93938D848D981306C00288F38953
:10030000E02D80818F7D80830895EF92FF920F937F
:100310001F93CF93DF93EC0181E0888F9B8D8C8DB1
:10032000981305C0E889F989808185FD24C0F62EDF
:100330000B8D10E00F5F1F4F0F731127E02E8C8D78
:10034000E8120CC00FB607FCFACFE889F989808162
:1003500085FFF5CFCE010E946401F1CF8B8DFE01A8
:10036000E80FF11DE35AFF4FF0820B8FEA89FB89FA
:100370008081806207C0EE89FF896083E889F989FE
:1003800080818064808381E090E0DF91CF911F9134
:100390000F91FF90EF900895CF93DF93EC01888D3C
:1003A0008823C9F0EA89FB89808185FD05C0A88979
:1003B000B9898C9186FD0FC00FB607FCF5CF8081FF
:1003C00085FFF2CFA889B9898C9185FFEDCFCE0149
:1003D0000E946401E7CFDF91CF91089580E090E023
:1003E000892B29F00E945A0181110C940000089574
:1003F000833081F028F4813099F08230A1F00895A3
:100400008730A9F08830B9F08430D1F48091800031
:100410008F7D03C0809180008F7780938000089546
:1004200084B58F7702C084B58F7D84BD0895809197
:10043000B0008F7703C08091B0008F7D8093B000B3
:1004400008951F93CF93DF93282F30E0F901E25DE9
:10045000FE4F8491F901E65EFE4FD491F901EA5F07
:10046000FE4FC491CC23C9F0162F81110E94F801D0
:10047000EC2FF0E0EE0FFF1FEE58FF4FA591B49167
:100480008FB7F894111105C09C91ED2FE095E923E9
:1004900002C0EC91ED2BEC938FBFDF91CF911F91B8
:1004A0000895CF93DF9390E0FC01E65EFE4F249128
:1004B000FC01EA5FFE4F8491882361F190E0880F90
:1004C000991FFC01E859FF4FC591D491FC01EE58EA
:1004D000FF4FA591B491611109C09FB7F89488812D
:1004E000209582238883EC912E230BC0623061F427
:1004F0009FB7F8943881822F809583238883EC916D
:100500002E2B2C939FBF06C08FB7F894E8812E2B1B
:1005100028838FBFDF91CF9108953FB7F8948091E2
:10052000510190915201A0915301B091540126B50F
:10053000A89B05C02F3F19F00196A11DB11D3FBF1B
:10054000BA2FA92F982F8827820F911DA11DB11DA9
:10055000BC01CD0142E0660F771F881F991F4A95A5
:10056000D1F708950C948D022FB7F89460914D0146
:1005700070914E0180914F01909150012FBF0895CD
:100580008F929F92AF92BF92CF92DF92EF92FF92A3
:100590000F931F93CF93DF936C018B017B01E40ECC
:1005A000F51E0E94B4024B015C01E801CE15DF0587
:1005B00080F0CE01801B910BDF91CF911F910F91A5
:1005C000FF90EF90DF90CF90BF90AF909F908F9073
:1005D00008950E94B402DC01CB0188199909AA0987
:1005E000BB09803D9740A105B10518F7D6018D9153
:1005F0009C91DC01ED91FC910680F781E02D09953D
:1006000097FDD4CF8993D2CFCF93DF93EC0188812C
:100610009981DC01ED91FC910284F385E02D09952F
:1006200081E08A83DF91CF910895BF92CF92DF92CC
:10063000EF92FF920F931F93CF93DF9300D000D0E0
:100640001F92CDB7DEB7B82E6A0189016115710519
:10065000B9F460910802709109026115710581F485
:100660008091550190915601019611F481E090E03E
:1006700090935601809355016091550170915601F8
:10068000E091F401F091F5018281882309F4F1C031
:10069000BB2009F4C8C08B2D8B7F823039F080914C
:1006A0000A0290910B02019709F0E3C0C114D10432
:1006B00009F097C0B9827627672776277B836A83FC
:1006C000902F812F9D838C8380819181DC01ED911E
:1006D000FC910280F381E02D45E050E0BE016F5FA8
:1006E0007F4F09950E94B202BB20E9F00115110568
:1006F000D1F0A5E0EA2EF12CE091F401F091F501A2
:1007000080819181DC01ED91FC910280F381E02DEB
:10071000A801B60109950B5F1F4F0E94B2020E158A
:100720001F0509F054C00E94B402AB01BC018091C6
:10073000040290910502A0910602B09107028C017B
:100740009D01E5E03695279517950795EA95D1F730
:100750006C017D01C01AD10AE20AF30A97018601F1
:100760008091FC019091FD01A091FE01B091FF01EB
:100770006A017B01C81AD90AEA0AFB0AD701C60135
:10078000F5E0B695A79597958795FA95D1F70097D7
:10079000A105B10519F48FEF9FEFDC01800F911FC8
:1007A000A21FB31F8093040290930502A093060238
:1007B000B09307024093FC015093FD016093FE014A
:1007C0007093FF01C297A105B10508F052C0E091F6
:1007D000F401F091F501128210920B0210920A02BC
:1007E00048C0780185E0E80EF11CB982962F872F6A
:1007F0009B838A83902F812F9D838C83808191811D
:10080000DC01ED91FC910280F381E02D45E050E0A8
:10081000BE016F5F7F4F09950E94B202011511055D
:1008200009F481CF69CFC114D10409F443CF780111
:10083000B5E0EB0EF11C19827627672776277B83BC
:100840006A831027012710271D830C8380819181E3
:10085000DC01ED91FC910280F381E02D45E050E058
:10086000BE016F5F7F4F09950E94B20205E010E064
:1008700056CF0F900F900F900F900F90DF91CF9168
:100880001F910F91FF90EF90DF90CF90BF90089550
:10089000CF93DF93CDB7DEB7C556D1090FB6F89425
:1008A000DEBF0FBECDBF45E650E062E471E0CE0191
:1008B00001960E94850A25E630E0AE014F5F5F4F4A
:1008C00060E070E081E10E941503CB59DF4F0FB665
:1008D000F894DEBF0FBECDBFDF91CF910895DC014C
:1008E000ED91FC91119701900020E9F7ED93FC93B5
:1008F00008950E94500A0F931F93CF93DF93EC014A
:10090000FB0101900020E9F78F01061B170B8A817C
:100910009B81A801480F591F2C813D812417350761
:1009200068F028813981A801820F931F0E94550A1F
:100930004A815B81400F511F5B834A83DF91CF91D6
:100940001F910F9108950F931F93CF93DF93CDB70E
:10095000DEB762970FB6F894DEBF0FBECDBF8C0135
:10096000CB014AE0BE016F5F7F4F0E948E0ABE013D
:100970006F5F7F4FC8010E947B0462960FB6F894A8
:10098000DEBF0FBECDBFDF91CF911F910F910895B4
:100990001F920F920FB60F9211242F933F934F93F4
:1009A0005F936F937F938F939F93AF93BF93EF93D7
:1009B000FF9387E591E00E946401FF91EF91BF9161
:1009C000AF919F918F917F916F915F914F913F91E7
:1009D0002F910F900FBE0F901F9018951F920F929E
:1009E0000FB60F9211242F938F939F93EF93FF9342
:1009F000E0916701F09168018081E0916D01F091D3
:100A00006E0182FD12C09081809170018F5F8F73A3
:100A100020917101821751F0E0917001F0E0E95AE4
:100A2000FE4F958F8093700101C08081FF91EF91FF
:100A30009F918F912F910F900FBE0F901F9018953F
:100A40001F920F920FB60F9211242F933F938F9303
:100A50009F93AF93BF9380914D0190914E01A091D0
:100A60004F01B091500130914C0123E0230F2D37FD
:100A700020F40196A11DB11D05C026E8230F0296A2
:100A8000A11DB11D20934C0180934D0190934E0107
:100A9000A0934F01B0935001809151019091520168
:100AA000A0915301B09154010196A11DB11D8093F5
:100AB000510190935201A0935301B0935401BF91FF
:100AC000AF919F918F913F912F910F900FBE0F90FB
:100AD0001F901895E7E5F1E01382128288EE93E00B
:100AE000A0E0B0E084839583A683B7838BE291E096
:100AF0009183808385EC90E09587848784EC90E0F7
:100B00009787868780EC90E0918B808B81EC90E0DA
:100B1000938B828B82EC90E0958B848B86EC90E0BB
:100B2000978B868B118E128E138E148EACE0B2E0F2
:100B300011961C921E9212961C921297E4EFF1E00D
:100B4000B183A083138212821482158216821782C7
:100B500010861186128613861486158616861786C9
:100B6000108A118A128A138A158A148A178A168A99
:100B70000895CF93DF93CDB7DEB7A1970FB6F89462
:100B8000DEBF0FBECDBF789484B5826084BD84B5CE
:100B9000816084BD85B5826085BD85B5816085BD78
:100BA00080916E00816080936E0010928100809130
:100BB00081008260809381008091810081608093B8
:100BC0008100809180008160809380008091B100DD
:100BD00084608093B1008091B00081608093B00008
:100BE00080917A00846080937A0080917A0082609C
:100BF00080937A0080917A00816080937A0080915E
:100C00007A00806880937A001092C10061E088E0E9
:100C10000E94510261E089E00E94510261E08AE095
:100C20000E945102E0916701F091680182E08083A7
:100C3000E0916301F09164011082E0916501F0910F
:100C400066018FEC808310926F01E0916B01F0914F
:100C50006C0186E08083E0916901F0916A018081F6
:100C600080618083E0916901F0916A0180818860F0
:100C70008083E0916901F0916A01808180688083BE
:100C8000E0916901F0916A0180818F7D808380E02D
:100C900091E09093F7018093F601E091F401F091D7
:100CA000F50187E591E09183808338EE232E33E0D0
:100CB000332E412C512C9E012F5F3F4F490140E1C3
:100CC000642E712C80910A0290910B02029709F414
:100CD00022C1E091F401F091F5010281002309F4B1
:100CE00048C080819181DC01ED91FC910480F58107
:100CF000E02D099518161906E4F545E050E0BE010F
:100D0000695E7F4F8091F4019091F5010E94C002CD
:100D1000009709F49AC3059709F09AC3888D998DB5
:100D2000982789279827998F888FEA8CFB8CFE2437
:100D3000EF24FE24FB8EEA8E892B09F489C38F8968
:100D400081110AC10E94B4026093F8017093F90105
:100D50008093FA019093FB0120910A0230910B02DB
:100D60004A8D5B8D232B09F4D9C04530510509F418
:100D70006FC30E94B4026B017C0180910A029091C2
:100D80000B028130910509F061C0011105C010927C
:100D90000B0210920A0251C08091F8019091F90162
:100DA000A091FA01B091FB01A7019601281B390B14
:100DB0004A0B5B0BDA01C90181383EE39307A105B9
:100DC000B10508F05CC081319742A105B105B0F4CE
:100DD0008091FC019091FD01A091FE01B091FF0175
:100DE000A7019601281B390B4A0B5B0BDA01C901DD
:100DF00081319742A105B10508F48DC080910002B0
:100E000090910102A0910202B0910302A701960104
:100E1000281B390B4A0B5B0BDA01C901813D974056
:100E2000A105B10508F477C020E030E040E050E0D3
:100E300060E070E086E00E941503C0920002D0924C
:100E40000102E0920202F092030265C0892B09F0D0
:100E500062C08091000290910102A0910202B091C3
:100E600003020023B1F0C81AD90AEA0AFB0A41EDCD
:100E7000C41647E0D406E104F10408F44CC0E09144
:100E8000F401F091F501128210920B0210920A0205
:100E900042C0A7019601281B390B4A0B5B0BDA01F4
:100EA000C90189389341A105B105A8F18091F401E8
:100EB0009091F501DC0112961C920E940403882394
:100EC00009F4BBCF20920402309205024092060240
:100ED000509207024091F6015091F701FA010190FA
:100EE0000020E9F731979F01241B350B61E070E08A
:100EF00082E00E9415038091FC019091FD01A09178
:100F0000FE01B091FF018093000290930102A09333
:100F10000202B09303020E94EE01D4CE288D398DD7
:100F20002130310509F021CF4B30510521F0483CEB
:100F3000510509F08DC26093000270930102809305
:100F400002029093030281E090E090930B02809361
:100F50000A020E94480479C28091F4019091F5013F
:100F6000B1E0EB16FB0618F00E9404036EC2EDB769
:100F7000FEB7F9A3E8A397012F5F3F4F4DB75EB7C8
:100F8000421B530B0FB6F8945EBF0FBE4DBFADB7FB
:100F9000BEB711966D01A701BD010E94C002E816FF
:100FA000F90609F049C2EA8DFB8DEC0DFD1D10829A
:100FB0000E94B4026093F8017093F9018093FA01E2
:100FC0009093FB018F898630D9F0A8F4823009F024
:100FD0002BC281E090E090930B0280930A02688D0F
:100FE000798D28EC30E040E050E080E00E9415036D
:100FF0000E9448041FC28F3069F0843159F014C236
:10100000688D798D28EC30E040E050E080E00E946F
:10101000150310C2888D998D909309028093080260
:101020002A8D3B8D3F8F2E8FDD8ECC8E5901AC0CDF
:10103000BD1CCA14DB0408F0F2C1D601ED90FC908F
:10104000CE014C960E946F04FC01808191818A152B
:101050009B0508F0E4C18C8D9D8DDC012C91213421
:1010600051F401960E94670A863091050CF07BC10D
:101070001EE0180F03C00E94670A182FB6E7EB1690
:10108000B2E7FB0609F476C198F4F1E6EF16F2E751
:10109000FF0609F4BFC024E6E21622E7F20609F4CF
:1010A0005DC030E7E3163DE6F30609F0ADC11AC0B6
:1010B00044E6E41647E7F40609F494C056E7E5165B
:1010C00057E7F50609F476C181E6E81687E7F806E2
:1010D00009F09AC1DCC030E7E3163DE6F30609F0FB
:1010E00093C11FEF8C8D9D8D8A159B0508F097C1CC
:1010F000CE014C960E946F04EC8CFD8C67E371E08E
:10110000C7010E945E0A892B11F460E018C06AE3EF
:1011100071E0C7010E945E0A892B09F4B9C16EE330
:1011200071E0C7010E945E0A892B09F4B1C168E42D
:1011300071E0C7010E945E0A892B21F462E0812FD1
:101140000E945102CE014C960E946F04CBCF24E640
:10115000E21622E7F20609F0BECF1FEF9A8A898ACB
:101160001C8A1B8A7E8A6D8A62E471E0CE014196F8
:101170000E947B04E12EF12CB701CE0141960E9422
:10118000A304F701E25DFE4F8491F701E65EFE4F96
:10119000D490F701EA5FFE4FE490EE2099F08111C0
:1011A0000E94F801EE2DF0E0EE0FFF1FE450FF4F1C
:1011B000A591B491EC91DE2261E070E009F052C09B
:1011C00060E050C060E070E04DC0E7E7EE16E2E797
:1011D000FE0608F443C144E6E41647E7F40609F0C6
:1011E000E2C01FEFCE014C960E946F04DC018D918E
:1011F0009C918A159B0508F012C161E0812F0E9425
:1012000051028C8D9D8D0E94670A61E0892B09F047
:101210005FC0A7C09A8A898A1C8A1B8A7E8A6D8AC7
:1012200065E471E0CE0141960E947B04612F70E07D
:10123000CE0141960E94A3041E3008F01E50177084
:10124000106410937C0080917A00806480937A000F
:1012500080917A0086FDFCCF6091780080917900C2
:1012600070E0782BCE0141960E94A3042B893C8923
:101270002150310949895A8960E070E084E1CDC08C
:1012800081E6E81687E7F80609F0BEC01FEFCE0139
:101290004C960E946F04FC01808191818A159B0508
:1012A00008F0BDC061E0812F0E9451028C8D9D8DA0
:1012B0000E94670A7C0161E0812F0E945102E114C3
:1012C000F10409F44EC0FFEFEF16F10429F461E0D8
:1012D000812F0E942102A3C0E12FF0E0E25DFE4FCA
:1012E000E491E330F9F048F4E130B9F0E230A1F5EF
:1012F00084B5806284BDE8BC92C0E730E9F0E83094
:1013000019F1E43049F5809180008062809380007B
:10131000F0928B00E0928A0082C084B5806884BD20
:10132000E7BC7DC080918000806880938000F0924F
:101330008900E092880073C08091B000806880933B
:10134000B000E092B3006BC08091B00080628093E7
:10135000B000E092B40063C020E8E216F1040CF0A3
:10136000B6CF60E0B5CFB6E7EB16B2E7FB0609F003
:101370002CCF1FEF1983103208F051C0E12FF0E09D
:10138000EE0FFF1FE454FF4F2591349121153105D5
:1013900009F445C040E02F3F340709F440C0C401C0
:1013A000F90109953CC056E7E51657E7F50609F03F
:1013B00067CF1FEFCE014C960E946F048C8D9D8DE0
:1013C000C81AD90A2E8D3F8DC20ED31E9A838983E7
:1013D000DC82CB82DE82CD82198B103200F5E12FC8
:1013E000F0E0EE0FFF1FE458FF4F259134912115D7
:1013F0003105A9F041E02030340789F0B401CE0175
:101400004196F90109950BC060910802709109029B
:1014100022E030E040E050E080E00E9415031092AE
:1014200009021092080206C08091F4019091F50122
:101430000E940403802F01C080E028A139A10FB6CB
:10144000F8943EBF0FBE2DBF01C0802F811191CCFB
:10145000E091F401F091F50112825DCDF1E6EF1615
:10146000F2E7FF0609F073CE9A8A898A1C8A1B8AE2
:101470007E8A6D8A65E471E0CE0141960E947B040C
:101480006FEF70E0CE0141960E94A3041FEFD6CE0D
:1014900061E055CEEE0FFF1F0590F491E02D099409
:1014A00081E090E0F8940C94CB0AFB01DC0102C0CF
:1014B00001900D9241505040D8F70895FB01DC0196
:1014C0008D91019080190110D9F3990B0895FC01B9
:1014D00088279927E89421912032E9F3293010F0E8
:1014E0002E30C8F32B3241F02D3239F4689404C009
:1014F0000E94990A820F911D219120532A30C0F336
:101500001EF4909581959F4F0895FB01DC0102C068
:1015100005900D9241505040D8F70895BB274A30AE
:1015200031F4992322F4BDE2909581959F4F0C945C
:10153000A20A7AE0979F902D879F802D910D11240C
:101540000895BB27FB015527AA27880F991FAA1FBB
:10155000A41710F0A41B83955051B9F7A05DAA33CE
:1015600008F0A95DA193009779F7B111B193119299
:10157000CB010C94BB0ADC01FC01672F719177232E
:10158000E1F7329704C07C916D9370836291AE173E
:0A159000BF07C8F30895F894FFCFD9
:10159A0064373665323364383463656534363161AD
:1015AA0061336636383639666634336530643037C7
:1015BA000000000F02800000000000850101014EBA
:1015CA00012C014001CC01696E006F7574007077BF
:0C15DA006D006477006177007075000000
:00000001FF
